{
  "_format": "hh-sol-artifact-1",
  "contractName": "Stake",
  "sourceName": "contracts/Stake.sol",
  "abi": [
    {
      "inputs": [
        {
          "internalType": "contract IERC20",
          "name": "_token",
          "type": "address"
        },
        {
          "components": [
            {
              "internalType": "uint256",
              "name": "minAmount",
              "type": "uint256"
            },
            {
              "internalType": "uint256",
              "name": "rewardRate",
              "type": "uint256"
            },
            {
              "internalType": "uint256",
              "name": "duration",
              "type": "uint256"
            }
          ],
          "internalType": "struct Stake.StakeTier[]",
          "name": "_tiers",
          "type": "tuple[]"
        },
        {
          "internalType": "uint256",
          "name": "_bidUpDuration",
          "type": "uint256"
        },
        {
          "internalType": "uint256",
          "name": "_minAmountOut",
          "type": "uint256"
        },
        {
          "internalType": "uint256",
          "name": "_deployDay",
          "type": "uint256"
        }
      ],
      "stateMutability": "nonpayable",
      "type": "constructor"
    },
    {
      "anonymous": false,
      "inputs": [
        {
          "indexed": true,
          "internalType": "address",
          "name": "previousOwner",
          "type": "address"
        },
        {
          "indexed": true,
          "internalType": "address",
          "name": "newOwner",
          "type": "address"
        }
      ],
      "name": "OwnershipTransferred",
      "type": "event"
    },
    {
      "anonymous": false,
      "inputs": [
        {
          "indexed": true,
          "internalType": "address",
          "name": "user",
          "type": "address"
        },
        {
          "indexed": false,
          "internalType": "uint256",
          "name": "amount",
          "type": "uint256"
        }
      ],
      "name": "RewardClaimedRequest",
      "type": "event"
    },
    {
      "anonymous": false,
      "inputs": [
        {
          "indexed": true,
          "internalType": "address",
          "name": "user",
          "type": "address"
        },
        {
          "indexed": true,
          "internalType": "uint256",
          "name": "tier",
          "type": "uint256"
        },
        {
          "indexed": false,
          "internalType": "uint256",
          "name": "amount",
          "type": "uint256"
        },
        {
          "indexed": true,
          "internalType": "address",
          "name": "referrer",
          "type": "address"
        }
      ],
      "name": "StakeCreated",
      "type": "event"
    },
    {
      "anonymous": false,
      "inputs": [
        {
          "indexed": true,
          "internalType": "address",
          "name": "user",
          "type": "address"
        },
        {
          "indexed": false,
          "internalType": "uint256",
          "name": "amount",
          "type": "uint256"
        }
      ],
      "name": "StakeWithdrawnRequest",
      "type": "event"
    },
    {
      "inputs": [],
      "name": "bidUpPaying",
      "outputs": [],
      "stateMutability": "nonpayable",
      "type": "function"
    },
    {
      "inputs": [],
      "name": "bidUpUsingReward",
      "outputs": [],
      "stateMutability": "nonpayable",
      "type": "function"
    },
    {
      "inputs": [
        {
          "internalType": "address",
          "name": "user",
          "type": "address"
        }
      ],
      "name": "calcReward",
      "outputs": [
        {
          "internalType": "uint256",
          "name": "reward",
          "type": "uint256"
        }
      ],
      "stateMutability": "view",
      "type": "function"
    },
    {
      "inputs": [],
      "name": "claimReward",
      "outputs": [],
      "stateMutability": "nonpayable",
      "type": "function"
    },
    {
      "inputs": [],
      "name": "getMinAmountOut",
      "outputs": [
        {
          "internalType": "uint256",
          "name": "",
          "type": "uint256"
        }
      ],
      "stateMutability": "view",
      "type": "function"
    },
    {
      "inputs": [
        {
          "internalType": "address",
          "name": "user",
          "type": "address"
        }
      ],
      "name": "getStake",
      "outputs": [
        {
          "components": [
            {
              "internalType": "uint256",
              "name": "tier",
              "type": "uint256"
            },
            {
              "internalType": "uint256",
              "name": "amount",
              "type": "uint256"
            },
            {
              "internalType": "uint256",
              "name": "startTimestamp",
              "type": "uint256"
            },
            {
              "internalType": "uint256",
              "name": "nextBidUp",
              "type": "uint256"
            },
            {
              "internalType": "address",
              "name": "referrer",
              "type": "address"
            },
            {
              "internalType": "uint256",
              "name": "rewardDiscount",
              "type": "uint256"
            }
          ],
          "internalType": "struct Stake.UserStake",
          "name": "",
          "type": "tuple"
        }
      ],
      "stateMutability": "view",
      "type": "function"
    },
    {
      "inputs": [],
      "name": "getTiers",
      "outputs": [
        {
          "components": [
            {
              "internalType": "uint256",
              "name": "minAmount",
              "type": "uint256"
            },
            {
              "internalType": "uint256",
              "name": "rewardRate",
              "type": "uint256"
            },
            {
              "internalType": "uint256",
              "name": "duration",
              "type": "uint256"
            }
          ],
          "internalType": "struct Stake.StakeTier[]",
          "name": "",
          "type": "tuple[]"
        }
      ],
      "stateMutability": "view",
      "type": "function"
    },
    {
      "inputs": [
        {
          "internalType": "uint256",
          "name": "tier",
          "type": "uint256"
        },
        {
          "internalType": "uint256",
          "name": "amount",
          "type": "uint256"
        },
        {
          "internalType": "address",
          "name": "referrer",
          "type": "address"
        }
      ],
      "name": "makeStake",
      "outputs": [],
      "stateMutability": "nonpayable",
      "type": "function"
    },
    {
      "inputs": [],
      "name": "owner",
      "outputs": [
        {
          "internalType": "address",
          "name": "",
          "type": "address"
        }
      ],
      "stateMutability": "view",
      "type": "function"
    },
    {
      "inputs": [],
      "name": "reinvest",
      "outputs": [],
      "stateMutability": "nonpayable",
      "type": "function"
    },
    {
      "inputs": [],
      "name": "renounceOwnership",
      "outputs": [],
      "stateMutability": "nonpayable",
      "type": "function"
    },
    {
      "inputs": [
        {
          "internalType": "address",
          "name": "",
          "type": "address"
        }
      ],
      "name": "stakes",
      "outputs": [
        {
          "internalType": "uint256",
          "name": "tier",
          "type": "uint256"
        },
        {
          "internalType": "uint256",
          "name": "amount",
          "type": "uint256"
        },
        {
          "internalType": "uint256",
          "name": "startTimestamp",
          "type": "uint256"
        },
        {
          "internalType": "uint256",
          "name": "nextBidUp",
          "type": "uint256"
        },
        {
          "internalType": "address",
          "name": "referrer",
          "type": "address"
        },
        {
          "internalType": "uint256",
          "name": "rewardDiscount",
          "type": "uint256"
        }
      ],
      "stateMutability": "view",
      "type": "function"
    },
    {
      "inputs": [
        {
          "internalType": "uint256",
          "name": "",
          "type": "uint256"
        }
      ],
      "name": "tiers",
      "outputs": [
        {
          "internalType": "uint256",
          "name": "minAmount",
          "type": "uint256"
        },
        {
          "internalType": "uint256",
          "name": "rewardRate",
          "type": "uint256"
        },
        {
          "internalType": "uint256",
          "name": "duration",
          "type": "uint256"
        }
      ],
      "stateMutability": "view",
      "type": "function"
    },
    {
      "inputs": [],
      "name": "totalTiers",
      "outputs": [
        {
          "internalType": "uint256",
          "name": "",
          "type": "uint256"
        }
      ],
      "stateMutability": "view",
      "type": "function"
    },
    {
      "inputs": [
        {
          "internalType": "address",
          "name": "newOwner",
          "type": "address"
        }
      ],
      "name": "transferOwnership",
      "outputs": [],
      "stateMutability": "nonpayable",
      "type": "function"
    },
    {
      "inputs": [
        {
          "internalType": "uint256",
          "name": "amount",
          "type": "uint256"
        }
      ],
      "name": "withdraw",
      "outputs": [],
      "stateMutability": "nonpayable",
      "type": "function"
    },
    {
      "inputs": [],
      "name": "withdrawStake",
      "outputs": [],
      "stateMutability": "nonpayable",
      "type": "function"
    }
  ],
  "bytecode": "0x6101206040523480156200001257600080fd5b5060405162004179380380620041798339818101604052810190620000389190620007da565b620000586200004c6200045d60201b60201c565b6200046560201b60201c565b60008451116200009f576040517f08c379a00000000000000000000000000000000000000000000000000000000081526004016200009690620008e2565b60405180910390fd5b600073ffffffffffffffffffffffffffffffffffffffff168573ffffffffffffffffffffffffffffffffffffffff160362000111576040517f08c379a000000000000000000000000000000000000000000000000000000000815260040162000108906200097a565b60405180910390fd5b62015180831162000159576040517f08c379a0000000000000000000000000000000000000000000000000000000008152600401620001509062000a12565b60405180910390fd5b8473ffffffffffffffffffffffffffffffffffffffff1660808173ffffffffffffffffffffffffffffffffffffffff1681525050600080600083610100818152505060005b87518110156200042e5783888281518110620001bf57620001be62000a34565b5b602002602001015160000151116200020e576040517f08c379a0000000000000000000000000000000000000000000000000000000008152600401620002059062000ad9565b60405180910390fd5b8288828151811062000225576200022462000a34565b5b6020026020010151604001511162000274576040517f08c379a00000000000000000000000000000000000000000000000000000000081526004016200026b9062000ad9565b60405180910390fd5b818882815181106200028b576200028a62000a34565b5b60200260200101516020015111620002da576040517f08c379a0000000000000000000000000000000000000000000000000000000008152600401620002d19062000ad9565b60405180910390fd5b612710888281518110620002f357620002f262000a34565b5b602002602001015160200151111562000343576040517f08c379a00000000000000000000000000000000000000000000000000000000081526004016200033a9062000b71565b60405180910390fd5b60018882815181106200035b576200035a62000a34565b5b602002602001015190806001815401808255809150506001900390600052602060002090600302016000909190919091506000820151816000015560208201518160010155604082015181600201555050878181518110620003c257620003c162000a34565b5b6020026020010151600001519350878181518110620003e657620003e562000a34565b5b60200260200101516040015192508781815181106200040a576200040962000a34565b5b60200260200101516020015191508080620004259062000bc2565b9150506200019e565b5086516002819055508560a081815250504260c081815250508460e08181525050505050505050505062000c0f565b600033905090565b60008060009054906101000a900473ffffffffffffffffffffffffffffffffffffffff169050816000806101000a81548173ffffffffffffffffffffffffffffffffffffffff021916908373ffffffffffffffffffffffffffffffffffffffff1602179055508173ffffffffffffffffffffffffffffffffffffffff168173ffffffffffffffffffffffffffffffffffffffff167f8be0079c531659141344cd1fd0a4f28419497f9722a3daafe3b4186f6b6457e060405160405180910390a35050565b6000604051905090565b600080fd5b600080fd5b600073ffffffffffffffffffffffffffffffffffffffff82169050919050565b60006200056a826200053d565b9050919050565b60006200057e826200055d565b9050919050565b620005908162000571565b81146200059c57600080fd5b50565b600081519050620005b08162000585565b92915050565b600080fd5b6000601f19601f8301169050919050565b7f4e487b7100000000000000000000000000000000000000000000000000000000600052604160045260246000fd5b6200060682620005bb565b810181811067ffffffffffffffff82111715620006285762000627620005cc565b5b80604052505050565b60006200063d62000529565b90506200064b8282620005fb565b919050565b600067ffffffffffffffff8211156200066e576200066d620005cc565b5b602082029050602081019050919050565b600080fd5b600080fd5b6000819050919050565b6200069e8162000689565b8114620006aa57600080fd5b50565b600081519050620006be8162000693565b92915050565b600060608284031215620006dd57620006dc62000684565b5b620006e9606062000631565b90506000620006fb84828501620006ad565b60008301525060206200071184828501620006ad565b60208301525060406200072784828501620006ad565b60408301525092915050565b60006200074a620007448462000650565b62000631565b9050808382526020820190506060840283018581111562000770576200076f6200067f565b5b835b818110156200079d5780620007888882620006c4565b84526020840193505060608101905062000772565b5050509392505050565b600082601f830112620007bf57620007be620005b6565b5b8151620007d184826020860162000733565b91505092915050565b600080600080600060a08688031215620007f957620007f862000533565b5b600062000809888289016200059f565b955050602086015167ffffffffffffffff8111156200082d576200082c62000538565b5b6200083b88828901620007a7565b94505060406200084e88828901620006ad565b93505060606200086188828901620006ad565b92505060806200087488828901620006ad565b9150509295509295909350565b600082825260208201905092915050565b7f5374616b653a207469657273206d757374206e6f7420626520656d7074790000600082015250565b6000620008ca601e8362000881565b9150620008d78262000892565b602082019050919050565b60006020820190508181036000830152620008fd81620008bb565b9050919050565b7f5374616b653a20746f6b656e206d757374206e6f74206265207a65726f20616460008201527f6472657373000000000000000000000000000000000000000000000000000000602082015250565b60006200096260258362000881565b91506200096f8262000904565b604082019050919050565b60006020820190508181036000830152620009958162000953565b9050919050565b7f5374616b653a20626964207570206475726174696f6e206d757374206265206760008201527f726561746572207468616e207a65726f00000000000000000000000000000000602082015250565b6000620009fa60308362000881565b915062000a07826200099c565b604082019050919050565b6000602082019050818103600083015262000a2d81620009eb565b9050919050565b7f4e487b7100000000000000000000000000000000000000000000000000000000600052603260045260246000fd5b7f5374616b653a207469657273206d75737420626520696e20617363656e64696e60008201527f67206f7264657200000000000000000000000000000000000000000000000000602082015250565b600062000ac160278362000881565b915062000ace8262000a63565b604082019050919050565b6000602082019050818103600083015262000af48162000ab2565b9050919050565b7f5374616b653a207265776172642072617465206d757374206265206c6573732060008201527f7468616e206f7220657175616c20746f20313030250000000000000000000000602082015250565b600062000b5960358362000881565b915062000b668262000afb565b604082019050919050565b6000602082019050818103600083015262000b8c8162000b4a565b9050919050565b7f4e487b7100000000000000000000000000000000000000000000000000000000600052601160045260246000fd5b600062000bcf8262000689565b91507fffffffffffffffffffffffffffffffffffffffffffffffffffffffffffffffff820362000c045762000c0362000b93565b5b600182019050919050565b60805160a05160c05160e051610100516134ed62000c8c6000396000610546015260008181610379015261146c01526000610576015260008181610a2401528181610d10015261111f0152600081816103ac01528181610cac01528181611000015281816112320152818161153e0152611c9701526134ed6000f3fe608060405234801561001057600080fd5b506004361061010b5760003560e01c8063869a6a6b116100a2578063b88a802f11610071578063b88a802f14610287578063bed9d86114610291578063de1705701461029b578063f2fde38b146102b9578063fdb5a03e146102d55761010b565b8063869a6a6b146102395780638da5cb5b146102435780638f7f120714610261578063ad78c1911461027d5761010b565b80633a61738d116100de5780633a61738d146101b1578063715018a6146101e157806379eaaf61146101eb5780637a766460146102095761010b565b8063039af9eb1461011057806316934fc414610142578063242abb0e146101775780632e1a7d4d14610195575b600080fd5b61012a600480360381019061012591906123a6565b6102df565b604051610139939291906123e2565b60405180910390f35b61015c60048036038101906101579190612477565b610319565b60405161016e969594939291906124b3565b60405180910390f35b61017f610375565b60405161018c9190612514565b60405180910390f35b6101af60048036038101906101aa91906123a6565b61039d565b005b6101cb60048036038101906101c69190612477565b6103f3565b6040516101d89190612514565b60405180910390f35b6101e961071f565b005b6101f3610733565b6040516102009190612514565b60405180910390f35b610223600480360381019061021e9190612477565b610739565b60405161023091906125c8565b60405180910390f35b61024161081a565b005b61024b610bcf565b60405161025891906125e3565b60405180910390f35b61027b600480360381019061027691906125fe565b610bf8565b005b610285610e86565b005b61028f61127c565b005b610299611665565b005b6102a3611937565b6040516102b09190612742565b60405180910390f35b6102d360048036038101906102ce9190612477565b6119b4565b005b6102dd611a37565b005b600181815481106102ef57600080fd5b90600052602060002090600302016000915090508060000154908060010154908060020154905083565b60036020528060005260406000206000915090508060000154908060010154908060020154908060030154908060040160009054906101000a900473ffffffffffffffffffffffffffffffffffffffff16908060050154905086565b60007f0000000000000000000000000000000000000000000000000000000000000000905090565b6103a5611dc3565b6103f033827f000000000000000000000000000000000000000000000000000000000000000073ffffffffffffffffffffffffffffffffffffffff16611e419092919063ffffffff16565b50565b600080600360008473ffffffffffffffffffffffffffffffffffffffff1673ffffffffffffffffffffffffffffffffffffffff1681526020019081526020016000206040518060c0016040529081600082015481526020016001820154815260200160028201548152602001600382015481526020016004820160009054906101000a900473ffffffffffffffffffffffffffffffffffffffff1673ffffffffffffffffffffffffffffffffffffffff1673ffffffffffffffffffffffffffffffffffffffff168152602001600582015481525050905060008160200151036104e057600091505061071a565b6000816060015142116104f357426104f9565b81606001515b905060006105296201518061051b856040015185611ec790919063ffffffff16565b611edd90919063ffffffff16565b90506000810361053f576000935050505061071a565b60006105d27f00000000000000000000000000000000000000000000000000000000000000006105c460076105b6620151806105a87f00000000000000000000000000000000000000000000000000000000000000008b60400151611ec790919063ffffffff16565b611edd90919063ffffffff16565b611ef390919063ffffffff16565b611f0990919063ffffffff16565b905060006106226002610614600761060660016105f8888a611f0990919063ffffffff16565b611f0990919063ffffffff16565b611edd90919063ffffffff16565b611f1f90919063ffffffff16565b90506000600561064e60076106408688611f0990919063ffffffff16565b611ef390919063ffffffff16565b1461065a57600061065d565b60015b60ff16905060006106898261067b8588611ec790919063ffffffff16565b611ec790919063ffffffff16565b905060006106e16127106106d360018b60000151815481106106ae576106ad612764565b5b9060005260206000209060030201600101548b60200151611f1f90919063ffffffff16565b611edd90919063ffffffff16565b90506106f68282611f1f90919063ffffffff16565b985061070f8860a001518a611ec790919063ffffffff16565b985050505050505050505b919050565b610727611dc3565b6107316000611f35565b565b60025481565b61074161231f565b600360008373ffffffffffffffffffffffffffffffffffffffff1673ffffffffffffffffffffffffffffffffffffffff1681526020019081526020016000206040518060c0016040529081600082015481526020016001820154815260200160028201548152602001600382015481526020016004820160009054906101000a900473ffffffffffffffffffffffffffffffffffffffff1673ffffffffffffffffffffffffffffffffffffffff1673ffffffffffffffffffffffffffffffffffffffff1681526020016005820154815250509050919050565b6000600360003373ffffffffffffffffffffffffffffffffffffffff1673ffffffffffffffffffffffffffffffffffffffff168152602001908152602001600020600101541161089f576040517f08c379a0000000000000000000000000000000000000000000000000000000008152600401610896906127f0565b60405180910390fd5b600360003373ffffffffffffffffffffffffffffffffffffffff1673ffffffffffffffffffffffffffffffffffffffff16815260200190815260200160002060030154421015610924576040517f08c379a000000000000000000000000000000000000000000000000000000000815260040161091b9061285c565b60405180910390fd5b600061092f336103f3565b905060008111610974576040517f08c379a000000000000000000000000000000000000000000000000000000000815260040161096b906128c8565b60405180910390fd5b600061099d606461098f600585611f1f90919063ffffffff16565b611edd90919063ffffffff16565b9050808210156109e2576040517f08c379a00000000000000000000000000000000000000000000000000000000081526004016109d99061295a565b60405180910390fd5b6000610a0b60646109fd600585611f1f90919063ffffffff16565b611edd90919063ffffffff16565b9050610a208183611ec790919063ffffffff16565b91507f000000000000000000000000000000000000000000000000000000000000000042610a4e91906129a9565b600360003373ffffffffffffffffffffffffffffffffffffffff1673ffffffffffffffffffffffffffffffffffffffff16815260200190815260200160002060030181905550610ae982600360003373ffffffffffffffffffffffffffffffffffffffff1673ffffffffffffffffffffffffffffffffffffffff16815260200190815260200160002060010154611f0990919063ffffffff16565b600360003373ffffffffffffffffffffffffffffffffffffffff1673ffffffffffffffffffffffffffffffffffffffff16815260200190815260200160002060010181905550610b8482600360003373ffffffffffffffffffffffffffffffffffffffff1673ffffffffffffffffffffffffffffffffffffffff16815260200190815260200160002060050154611f0990919063ffffffff16565b600360003373ffffffffffffffffffffffffffffffffffffffff1673ffffffffffffffffffffffffffffffffffffffff16815260200190815260200160002060050181905550505050565b60008060009054906101000a900473ffffffffffffffffffffffffffffffffffffffff16905090565b6002548310610c3c576040517f08c379a0000000000000000000000000000000000000000000000000000000008152600401610c3390612a29565b60405180910390fd5b60018381548110610c5057610c4f612764565b5b906000526020600020906003020160000154821015610ca4576040517f08c379a0000000000000000000000000000000000000000000000000000000008152600401610c9b90612a95565b60405180910390fd5b610cf13330847f000000000000000000000000000000000000000000000000000000000000000073ffffffffffffffffffffffffffffffffffffffff16611ff9909392919063ffffffff16565b6040518060c001604052808481526020018381526020014281526020017f000000000000000000000000000000000000000000000000000000000000000042610d3a91906129a9565b81526020018273ffffffffffffffffffffffffffffffffffffffff1681526020016000815250600360003373ffffffffffffffffffffffffffffffffffffffff1673ffffffffffffffffffffffffffffffffffffffff1681526020019081526020016000206000820151816000015560208201518160010155604082015181600201556060820151816003015560808201518160040160006101000a81548173ffffffffffffffffffffffffffffffffffffffff021916908373ffffffffffffffffffffffffffffffffffffffff16021790555060a082015181600501559050508073ffffffffffffffffffffffffffffffffffffffff16833373ffffffffffffffffffffffffffffffffffffffff167f400f0fe3857f81159b40670bacb6306a109ec36bcb070f8924c283ceb96ca68785604051610e799190612514565b60405180910390a4505050565b6000600360003373ffffffffffffffffffffffffffffffffffffffff1673ffffffffffffffffffffffffffffffffffffffff1681526020019081526020016000206001015411610f0b576040517f08c379a0000000000000000000000000000000000000000000000000000000008152600401610f02906127f0565b60405180910390fd5b600360003373ffffffffffffffffffffffffffffffffffffffff1673ffffffffffffffffffffffffffffffffffffffff16815260200190815260200160002060030154421015610f90576040517f08c379a0000000000000000000000000000000000000000000000000000000008152600401610f879061285c565b60405180910390fd5b6000610ffb6064610fed6005600360003373ffffffffffffffffffffffffffffffffffffffff1673ffffffffffffffffffffffffffffffffffffffff16815260200190815260200160002060010154611f1f90919063ffffffff16565b611edd90919063ffffffff16565b9050807f000000000000000000000000000000000000000000000000000000000000000073ffffffffffffffffffffffffffffffffffffffff1663dd62ed3e33306040518363ffffffff1660e01b8152600401611059929190612ab5565b602060405180830381865afa158015611076573d6000803e3d6000fd5b505050506040513d601f19601f8201168201806040525081019061109a9190612af3565b10156110db576040517f08c379a00000000000000000000000000000000000000000000000000000000081526004016110d290612b6c565b60405180910390fd5b600061110460646110f6600585611f1f90919063ffffffff16565b611edd90919063ffffffff16565b9050600061111b8284611ec790919063ffffffff16565b90507f00000000000000000000000000000000000000000000000000000000000000004261114991906129a9565b600360003373ffffffffffffffffffffffffffffffffffffffff1673ffffffffffffffffffffffffffffffffffffffff168152602001908152602001600020600301819055506111e481600360003373ffffffffffffffffffffffffffffffffffffffff1673ffffffffffffffffffffffffffffffffffffffff16815260200190815260200160002060010154611f0990919063ffffffff16565b600360003373ffffffffffffffffffffffffffffffffffffffff1673ffffffffffffffffffffffffffffffffffffffff168152602001908152602001600020600101819055506112773330857f000000000000000000000000000000000000000000000000000000000000000073ffffffffffffffffffffffffffffffffffffffff16611ff9909392919063ffffffff16565b505050565b6000611287336103f3565b9050600081116112cc576040517f08c379a00000000000000000000000000000000000000000000000000000000081526004016112c390612bd8565b60405180910390fd5b600360003373ffffffffffffffffffffffffffffffffffffffff1673ffffffffffffffffffffffffffffffffffffffff168152602001908152602001600020600301544210611350576040517f08c379a000000000000000000000000000000000000000000000000000000000815260040161134790612c6a565b60405180910390fd5b6000611379606461136b600e85611f1f90919063ffffffff16565b611edd90919063ffffffff16565b905060008073ffffffffffffffffffffffffffffffffffffffff16600360003373ffffffffffffffffffffffffffffffffffffffff1673ffffffffffffffffffffffffffffffffffffffff16815260200190815260200160002060040160009054906101000a900473ffffffffffffffffffffffffffffffffffffffff1673ffffffffffffffffffffffffffffffffffffffff1603611419576000611441565b6114406064611432601486611f1f90919063ffffffff16565b611edd90919063ffffffff16565b5b90506114688161145a8486611ec790919063ffffffff16565b611ec790919063ffffffff16565b92507f00000000000000000000000000000000000000000000000000000000000000008310156114cd576040517f08c379a00000000000000000000000000000000000000000000000000000000081526004016114c490612cd6565b60405180910390fd5b6000811461158357611582600360003373ffffffffffffffffffffffffffffffffffffffff1673ffffffffffffffffffffffffffffffffffffffff16815260200190815260200160002060040160009054906101000a900473ffffffffffffffffffffffffffffffffffffffff16827f000000000000000000000000000000000000000000000000000000000000000073ffffffffffffffffffffffffffffffffffffffff16611e419092919063ffffffff16565b5b42600360003373ffffffffffffffffffffffffffffffffffffffff1673ffffffffffffffffffffffffffffffffffffffff168152602001908152602001600020600201819055506000600360003373ffffffffffffffffffffffffffffffffffffffff1673ffffffffffffffffffffffffffffffffffffffff168152602001908152602001600020600501819055503373ffffffffffffffffffffffffffffffffffffffff167fb943f34140f7307d17b7af01955bd54e04aad7b66a917fcdab6b2a25584153cb846040516116589190612514565b60405180910390a2505050565b6000600360003373ffffffffffffffffffffffffffffffffffffffff1673ffffffffffffffffffffffffffffffffffffffff1681526020019081526020016000206040518060c0016040529081600082015481526020016001820154815260200160028201548152602001600382015481526020016004820160009054906101000a900473ffffffffffffffffffffffffffffffffffffffff1673ffffffffffffffffffffffffffffffffffffffff1673ffffffffffffffffffffffffffffffffffffffff16815260200160058201548152505090506000816020015111611782576040517f08c379a000000000000000000000000000000000000000000000000000000000815260040161177990612d42565b60405180910390fd5b806060015142106117c8576040517f08c379a00000000000000000000000000000000000000000000000000000000081526004016117bf90612dd4565b60405180910390fd5b61180860018260000151815481106117e3576117e2612764565b5b9060005260206000209060030201600201548260400151611f0990919063ffffffff16565b42101561184a576040517f08c379a000000000000000000000000000000000000000000000000000000000815260040161184190612e66565b60405180910390fd5b61185261127c565b600061187f6064611871600e8560200151611f1f90919063ffffffff16565b611edd90919063ffffffff16565b9050600061189a828460200151611ec790919063ffffffff16565b90506000600360003373ffffffffffffffffffffffffffffffffffffffff1673ffffffffffffffffffffffffffffffffffffffff168152602001908152602001600020600101819055503373ffffffffffffffffffffffffffffffffffffffff167fde7bd11ad0f7ffd885eed2a55bbd63cc6fb28a38d613ef59f14bc2937a880b3a8260405161192a9190612514565b60405180910390a2505050565b60606001805480602002602001604051908101604052809291908181526020016000905b828210156119ab578382906000526020600020906003020160405180606001604052908160008201548152602001600182015481526020016002820154815250508152602001906001019061195b565b50505050905090565b6119bc611dc3565b600073ffffffffffffffffffffffffffffffffffffffff168173ffffffffffffffffffffffffffffffffffffffff1603611a2b576040517f08c379a0000000000000000000000000000000000000000000000000000000008152600401611a2290612ef8565b60405180910390fd5b611a3481611f35565b50565b6000600360003373ffffffffffffffffffffffffffffffffffffffff1673ffffffffffffffffffffffffffffffffffffffff1681526020019081526020016000206001015411611abc576040517f08c379a0000000000000000000000000000000000000000000000000000000008152600401611ab390612f64565b60405180910390fd5b6000611ac7336103f3565b905060008111611b0c576040517f08c379a0000000000000000000000000000000000000000000000000000000008152600401611b0390612fd0565b60405180910390fd5b6000611b356064611b27600e85611f1f90919063ffffffff16565b611edd90919063ffffffff16565b905060008073ffffffffffffffffffffffffffffffffffffffff16600360003373ffffffffffffffffffffffffffffffffffffffff1673ffffffffffffffffffffffffffffffffffffffff16815260200190815260200160002060040160009054906101000a900473ffffffffffffffffffffffffffffffffffffffff1673ffffffffffffffffffffffffffffffffffffffff1603611bd5576000611bfd565b611bfc6064611bee600886611f1f90919063ffffffff16565b611edd90919063ffffffff16565b5b9050611c2481611c168486611ec790919063ffffffff16565b611ec790919063ffffffff16565b925060008114611cdc57611cdb600360003373ffffffffffffffffffffffffffffffffffffffff1673ffffffffffffffffffffffffffffffffffffffff16815260200190815260200160002060040160009054906101000a900473ffffffffffffffffffffffffffffffffffffffff16827f000000000000000000000000000000000000000000000000000000000000000073ffffffffffffffffffffffffffffffffffffffff16611e419092919063ffffffff16565b5b611d3183600360003373ffffffffffffffffffffffffffffffffffffffff1673ffffffffffffffffffffffffffffffffffffffff16815260200190815260200160002060010154611f0990919063ffffffff16565b600360003373ffffffffffffffffffffffffffffffffffffffff1673ffffffffffffffffffffffffffffffffffffffff1681526020019081526020016000206001018190555042600360003373ffffffffffffffffffffffffffffffffffffffff1673ffffffffffffffffffffffffffffffffffffffff16815260200190815260200160002060020181905550505050565b611dcb612082565b73ffffffffffffffffffffffffffffffffffffffff16611de9610bcf565b73ffffffffffffffffffffffffffffffffffffffff1614611e3f576040517f08c379a0000000000000000000000000000000000000000000000000000000008152600401611e369061303c565b60405180910390fd5b565b611ec28363a9059cbb60e01b8484604051602401611e6092919061305c565b604051602081830303815290604052907bffffffffffffffffffffffffffffffffffffffffffffffffffffffff19166020820180517bffffffffffffffffffffffffffffffffffffffffffffffffffffffff838183161783525050505061208a565b505050565b60008183611ed59190613085565b905092915050565b60008183611eeb91906130e8565b905092915050565b60008183611f019190613119565b905092915050565b60008183611f1791906129a9565b905092915050565b60008183611f2d919061314a565b905092915050565b60008060009054906101000a900473ffffffffffffffffffffffffffffffffffffffff169050816000806101000a81548173ffffffffffffffffffffffffffffffffffffffff021916908373ffffffffffffffffffffffffffffffffffffffff1602179055508173ffffffffffffffffffffffffffffffffffffffff168173ffffffffffffffffffffffffffffffffffffffff167f8be0079c531659141344cd1fd0a4f28419497f9722a3daafe3b4186f6b6457e060405160405180910390a35050565b61207c846323b872dd60e01b85858560405160240161201a9392919061318c565b604051602081830303815290604052907bffffffffffffffffffffffffffffffffffffffffffffffffffffffff19166020820180517bffffffffffffffffffffffffffffffffffffffffffffffffffffffff838183161783525050505061208a565b50505050565b600033905090565b60006120ec826040518060400160405280602081526020017f5361666545524332303a206c6f772d6c6576656c2063616c6c206661696c65648152508573ffffffffffffffffffffffffffffffffffffffff166121529092919063ffffffff16565b905060008151148061210e57508080602001905181019061210d91906131fb565b5b61214d576040517f08c379a00000000000000000000000000000000000000000000000000000000081526004016121449061329a565b60405180910390fd5b505050565b6060612161848460008561216a565b90509392505050565b6060824710156121af576040517f08c379a00000000000000000000000000000000000000000000000000000000081526004016121a69061332c565b60405180910390fd5b6000808673ffffffffffffffffffffffffffffffffffffffff1685876040516121d891906133bd565b60006040518083038185875af1925050503d8060008114612215576040519150601f19603f3d011682016040523d82523d6000602084013e61221a565b606091505b509150915061222b87838387612237565b92505050949350505050565b6060831561229957600083510361229157612251856122ac565b612290576040517f08c379a000000000000000000000000000000000000000000000000000000000815260040161228790613420565b60405180910390fd5b5b8290506122a4565b6122a383836122cf565b5b949350505050565b6000808273ffffffffffffffffffffffffffffffffffffffff163b119050919050565b6000825111156122e25781518083602001fd5b806040517f08c379a00000000000000000000000000000000000000000000000000000000081526004016123169190613495565b60405180910390fd5b6040518060c0016040528060008152602001600081526020016000815260200160008152602001600073ffffffffffffffffffffffffffffffffffffffff168152602001600081525090565b600080fd5b6000819050919050565b61238381612370565b811461238e57600080fd5b50565b6000813590506123a08161237a565b92915050565b6000602082840312156123bc576123bb61236b565b5b60006123ca84828501612391565b91505092915050565b6123dc81612370565b82525050565b60006060820190506123f760008301866123d3565b61240460208301856123d3565b61241160408301846123d3565b949350505050565b600073ffffffffffffffffffffffffffffffffffffffff82169050919050565b600061244482612419565b9050919050565b61245481612439565b811461245f57600080fd5b50565b6000813590506124718161244b565b92915050565b60006020828403121561248d5761248c61236b565b5b600061249b84828501612462565b91505092915050565b6124ad81612439565b82525050565b600060c0820190506124c860008301896123d3565b6124d560208301886123d3565b6124e260408301876123d3565b6124ef60608301866123d3565b6124fc60808301856124a4565b61250960a08301846123d3565b979650505050505050565b600060208201905061252960008301846123d3565b92915050565b61253881612370565b82525050565b61254781612439565b82525050565b60c082016000820151612563600085018261252f565b506020820151612576602085018261252f565b506040820151612589604085018261252f565b50606082015161259c606085018261252f565b5060808201516125af608085018261253e565b5060a08201516125c260a085018261252f565b50505050565b600060c0820190506125dd600083018461254d565b92915050565b60006020820190506125f860008301846124a4565b92915050565b6000806000606084860312156126175761261661236b565b5b600061262586828701612391565b935050602061263686828701612391565b925050604061264786828701612462565b9150509250925092565b600081519050919050565b600082825260208201905092915050565b6000819050602082019050919050565b606082016000820151612693600085018261252f565b5060208201516126a6602085018261252f565b5060408201516126b9604085018261252f565b50505050565b60006126cb838361267d565b60608301905092915050565b6000602082019050919050565b60006126ef82612651565b6126f9818561265c565b93506127048361266d565b8060005b8381101561273557815161271c88826126bf565b9750612727836126d7565b925050600181019050612708565b5085935050505092915050565b6000602082019050818103600083015261275c81846126e4565b905092915050565b7f4e487b7100000000000000000000000000000000000000000000000000000000600052603260045260246000fd5b600082825260208201905092915050565b7f5374616b653a206e6f207374616b6520746f2062696420757000000000000000600082015250565b60006127da601983612793565b91506127e5826127a4565b602082019050919050565b60006020820190508181036000830152612809816127cd565b9050919050565b7f5374616b653a20626964207570206e6f7420617661696c61626c652079657400600082015250565b6000612846601f83612793565b915061285182612810565b602082019050919050565b6000602082019050818103600083015261287581612839565b9050919050565b7f5374616b653a206e6f2072657761726420746f20626964207570000000000000600082015250565b60006128b2601a83612793565b91506128bd8261287c565b602082019050919050565b600060208201905081810360008301526128e1816128a5565b9050919050565b7f5374616b653a206e6f7420656e6f7567682072657761726420746f206269642060008201527f7570000000000000000000000000000000000000000000000000000000000000602082015250565b6000612944602283612793565b915061294f826128e8565b604082019050919050565b6000602082019050818103600083015261297381612937565b9050919050565b7f4e487b7100000000000000000000000000000000000000000000000000000000600052601160045260246000fd5b60006129b482612370565b91506129bf83612370565b92508282019050808211156129d7576129d661297a565b5b92915050565b7f5374616b653a20696e76616c6964207469657200000000000000000000000000600082015250565b6000612a13601383612793565b9150612a1e826129dd565b602082019050919050565b60006020820190508181036000830152612a4281612a06565b9050919050565b7f5374616b653a20616d6f756e7420746f6f206c6f770000000000000000000000600082015250565b6000612a7f601583612793565b9150612a8a82612a49565b602082019050919050565b60006020820190508181036000830152612aae81612a72565b9050919050565b6000604082019050612aca60008301856124a4565b612ad760208301846124a4565b9392505050565b600081519050612aed8161237a565b92915050565b600060208284031215612b0957612b0861236b565b5b6000612b1784828501612ade565b91505092915050565b7f5374616b653a20696e73756666696369656e7420616c6c6f77616e6365000000600082015250565b6000612b56601d83612793565b9150612b6182612b20565b602082019050919050565b60006020820190508181036000830152612b8581612b49565b9050919050565b7f5374616b653a206e6f2072657761726420746f20636c61696d00000000000000600082015250565b6000612bc2601983612793565b9150612bcd82612b8c565b602082019050919050565b60006020820190508181036000830152612bf181612bb5565b9050919050565b7f5374616b653a2053686f756c6420626964207570206265666f726520636c616960008201527f6d20726577617264000000000000000000000000000000000000000000000000602082015250565b6000612c54602883612793565b9150612c5f82612bf8565b604082019050919050565b60006020820190508181036000830152612c8381612c47565b9050919050565b7f5374616b653a2072657761726420746f6f206c6f7720746f20636c61696d0000600082015250565b6000612cc0601e83612793565b9150612ccb82612c8a565b602082019050919050565b60006020820190508181036000830152612cef81612cb3565b9050919050565b7f5374616b653a206e6f207374616b6520746f2077697468647261770000000000600082015250565b6000612d2c601b83612793565b9150612d3782612cf6565b602082019050919050565b60006020820190508181036000830152612d5b81612d1f565b9050919050565b7f5374616b653a2053686f756c6420626964207570206265666f7265207769746860008201527f6472617700000000000000000000000000000000000000000000000000000000602082015250565b6000612dbe602483612793565b9150612dc982612d62565b604082019050919050565b60006020820190508181036000830152612ded81612db1565b9050919050565b7f5374616b653a2053686f756c64207761697420756e74696c207374616b65206460008201527f75726174696f6e20656e64730000000000000000000000000000000000000000602082015250565b6000612e50602c83612793565b9150612e5b82612df4565b604082019050919050565b60006020820190508181036000830152612e7f81612e43565b9050919050565b7f4f776e61626c653a206e6577206f776e657220697320746865207a65726f206160008201527f6464726573730000000000000000000000000000000000000000000000000000602082015250565b6000612ee2602683612793565b9150612eed82612e86565b604082019050919050565b60006020820190508181036000830152612f1181612ed5565b9050919050565b7f5374616b653a206e6f207374616b6520746f207265696e766573740000000000600082015250565b6000612f4e601b83612793565b9150612f5982612f18565b602082019050919050565b60006020820190508181036000830152612f7d81612f41565b9050919050565b7f5374616b653a206e6f2072657761726420746f207265696e7665737400000000600082015250565b6000612fba601c83612793565b9150612fc582612f84565b602082019050919050565b60006020820190508181036000830152612fe981612fad565b9050919050565b7f4f776e61626c653a2063616c6c6572206973206e6f7420746865206f776e6572600082015250565b6000613026602083612793565b915061303182612ff0565b602082019050919050565b6000602082019050818103600083015261305581613019565b9050919050565b600060408201905061307160008301856124a4565b61307e60208301846123d3565b9392505050565b600061309082612370565b915061309b83612370565b92508282039050818111156130b3576130b261297a565b5b92915050565b7f4e487b7100000000000000000000000000000000000000000000000000000000600052601260045260246000fd5b60006130f382612370565b91506130fe83612370565b92508261310e5761310d6130b9565b5b828204905092915050565b600061312482612370565b915061312f83612370565b92508261313f5761313e6130b9565b5b828206905092915050565b600061315582612370565b915061316083612370565b925082820261316e81612370565b915082820484148315176131855761318461297a565b5b5092915050565b60006060820190506131a160008301866124a4565b6131ae60208301856124a4565b6131bb60408301846123d3565b949350505050565b60008115159050919050565b6131d8816131c3565b81146131e357600080fd5b50565b6000815190506131f5816131cf565b92915050565b6000602082840312156132115761321061236b565b5b600061321f848285016131e6565b91505092915050565b7f5361666545524332303a204552433230206f7065726174696f6e20646964206e60008201527f6f74207375636365656400000000000000000000000000000000000000000000602082015250565b6000613284602a83612793565b915061328f82613228565b604082019050919050565b600060208201905081810360008301526132b381613277565b9050919050565b7f416464726573733a20696e73756666696369656e742062616c616e636520666f60008201527f722063616c6c0000000000000000000000000000000000000000000000000000602082015250565b6000613316602683612793565b9150613321826132ba565b604082019050919050565b6000602082019050818103600083015261334581613309565b9050919050565b600081519050919050565b600081905092915050565b60005b83811015613380578082015181840152602081019050613365565b60008484015250505050565b60006133978261334c565b6133a18185613357565b93506133b1818560208601613362565b80840191505092915050565b60006133c9828461338c565b915081905092915050565b7f416464726573733a2063616c6c20746f206e6f6e2d636f6e7472616374000000600082015250565b600061340a601d83612793565b9150613415826133d4565b602082019050919050565b60006020820190508181036000830152613439816133fd565b9050919050565b600081519050919050565b6000601f19601f8301169050919050565b600061346782613440565b6134718185612793565b9350613481818560208601613362565b61348a8161344b565b840191505092915050565b600060208201905081810360008301526134af818461345c565b90509291505056fea26469706673582212202c9177b68679b28adbb6e65d46bbe22e6e5eca3c76db5c390f2ee6ea76d237b264736f6c63430008130033",
  "linkReferences": {},
  "deployedLinkReferences": {}
}