{
  "_format": "hh-sol-artifact-1",
  "contractName": "Stake",
  "sourceName": "contracts/Stake.sol",
  "abi": [
    {
      "inputs": [
        {
          "internalType": "contract IERC20",
          "name": "_token",
          "type": "address"
        },
        {
          "components": [
            {
              "internalType": "uint256",
              "name": "minAmount",
              "type": "uint256"
            },
            {
              "internalType": "uint256",
              "name": "rewardRate",
              "type": "uint256"
            },
            {
              "internalType": "uint256",
              "name": "duration",
              "type": "uint256"
            }
          ],
          "internalType": "struct Stake.StakeTier[]",
          "name": "_tiers",
          "type": "tuple[]"
        },
        {
          "internalType": "uint256",
          "name": "_bidUpDuration",
          "type": "uint256"
        },
        {
          "internalType": "uint256",
          "name": "_minAmountOut",
          "type": "uint256"
        }
      ],
      "stateMutability": "nonpayable",
      "type": "constructor"
    },
    {
      "anonymous": false,
      "inputs": [
        {
          "indexed": true,
          "internalType": "address",
          "name": "previousOwner",
          "type": "address"
        },
        {
          "indexed": true,
          "internalType": "address",
          "name": "newOwner",
          "type": "address"
        }
      ],
      "name": "OwnershipTransferred",
      "type": "event"
    },
    {
      "anonymous": false,
      "inputs": [
        {
          "indexed": true,
          "internalType": "address",
          "name": "user",
          "type": "address"
        },
        {
          "indexed": false,
          "internalType": "uint256",
          "name": "amount",
          "type": "uint256"
        }
      ],
      "name": "RewardClaimed",
      "type": "event"
    },
    {
      "anonymous": false,
      "inputs": [
        {
          "indexed": true,
          "internalType": "address",
          "name": "user",
          "type": "address"
        },
        {
          "indexed": true,
          "internalType": "uint256",
          "name": "tier",
          "type": "uint256"
        },
        {
          "indexed": false,
          "internalType": "uint256",
          "name": "amount",
          "type": "uint256"
        },
        {
          "indexed": true,
          "internalType": "address",
          "name": "referrer",
          "type": "address"
        }
      ],
      "name": "StakeCreated",
      "type": "event"
    },
    {
      "anonymous": false,
      "inputs": [
        {
          "indexed": true,
          "internalType": "address",
          "name": "user",
          "type": "address"
        },
        {
          "indexed": false,
          "internalType": "uint256",
          "name": "amount",
          "type": "uint256"
        }
      ],
      "name": "StakeWithdrawn",
      "type": "event"
    },
    {
      "inputs": [],
      "name": "bidUpPaying",
      "outputs": [],
      "stateMutability": "nonpayable",
      "type": "function"
    },
    {
      "inputs": [],
      "name": "bidUpUsingReward",
      "outputs": [],
      "stateMutability": "nonpayable",
      "type": "function"
    },
    {
      "inputs": [
        {
          "internalType": "address",
          "name": "user",
          "type": "address"
        }
      ],
      "name": "calcReward",
      "outputs": [
        {
          "internalType": "uint256",
          "name": "reward",
          "type": "uint256"
        }
      ],
      "stateMutability": "view",
      "type": "function"
    },
    {
      "inputs": [],
      "name": "claimReward",
      "outputs": [],
      "stateMutability": "nonpayable",
      "type": "function"
    },
    {
      "inputs": [],
      "name": "getMinAmountOut",
      "outputs": [
        {
          "internalType": "uint256",
          "name": "",
          "type": "uint256"
        }
      ],
      "stateMutability": "view",
      "type": "function"
    },
    {
      "inputs": [
        {
          "internalType": "address",
          "name": "user",
          "type": "address"
        }
      ],
      "name": "getStake",
      "outputs": [
        {
          "components": [
            {
              "internalType": "uint256",
              "name": "tier",
              "type": "uint256"
            },
            {
              "internalType": "uint256",
              "name": "amount",
              "type": "uint256"
            },
            {
              "internalType": "uint256",
              "name": "startTimestamp",
              "type": "uint256"
            },
            {
              "internalType": "uint256",
              "name": "nextBidUp",
              "type": "uint256"
            },
            {
              "internalType": "address",
              "name": "referrer",
              "type": "address"
            },
            {
              "internalType": "uint256",
              "name": "rewardDiscount",
              "type": "uint256"
            }
          ],
          "internalType": "struct Stake.UserStake",
          "name": "",
          "type": "tuple"
        }
      ],
      "stateMutability": "view",
      "type": "function"
    },
    {
      "inputs": [],
      "name": "getTiers",
      "outputs": [
        {
          "components": [
            {
              "internalType": "uint256",
              "name": "minAmount",
              "type": "uint256"
            },
            {
              "internalType": "uint256",
              "name": "rewardRate",
              "type": "uint256"
            },
            {
              "internalType": "uint256",
              "name": "duration",
              "type": "uint256"
            }
          ],
          "internalType": "struct Stake.StakeTier[]",
          "name": "",
          "type": "tuple[]"
        }
      ],
      "stateMutability": "view",
      "type": "function"
    },
    {
      "inputs": [
        {
          "internalType": "uint256",
          "name": "tier",
          "type": "uint256"
        },
        {
          "internalType": "uint256",
          "name": "amount",
          "type": "uint256"
        },
        {
          "internalType": "address",
          "name": "referrer",
          "type": "address"
        }
      ],
      "name": "makeStake",
      "outputs": [],
      "stateMutability": "nonpayable",
      "type": "function"
    },
    {
      "inputs": [],
      "name": "owner",
      "outputs": [
        {
          "internalType": "address",
          "name": "",
          "type": "address"
        }
      ],
      "stateMutability": "view",
      "type": "function"
    },
    {
      "inputs": [],
      "name": "reinvest",
      "outputs": [],
      "stateMutability": "nonpayable",
      "type": "function"
    },
    {
      "inputs": [],
      "name": "renounceOwnership",
      "outputs": [],
      "stateMutability": "nonpayable",
      "type": "function"
    },
    {
      "inputs": [
        {
          "internalType": "address",
          "name": "",
          "type": "address"
        }
      ],
      "name": "stakes",
      "outputs": [
        {
          "internalType": "uint256",
          "name": "tier",
          "type": "uint256"
        },
        {
          "internalType": "uint256",
          "name": "amount",
          "type": "uint256"
        },
        {
          "internalType": "uint256",
          "name": "startTimestamp",
          "type": "uint256"
        },
        {
          "internalType": "uint256",
          "name": "nextBidUp",
          "type": "uint256"
        },
        {
          "internalType": "address",
          "name": "referrer",
          "type": "address"
        },
        {
          "internalType": "uint256",
          "name": "rewardDiscount",
          "type": "uint256"
        }
      ],
      "stateMutability": "view",
      "type": "function"
    },
    {
      "inputs": [
        {
          "internalType": "uint256",
          "name": "",
          "type": "uint256"
        }
      ],
      "name": "tiers",
      "outputs": [
        {
          "internalType": "uint256",
          "name": "minAmount",
          "type": "uint256"
        },
        {
          "internalType": "uint256",
          "name": "rewardRate",
          "type": "uint256"
        },
        {
          "internalType": "uint256",
          "name": "duration",
          "type": "uint256"
        }
      ],
      "stateMutability": "view",
      "type": "function"
    },
    {
      "inputs": [],
      "name": "totalTiers",
      "outputs": [
        {
          "internalType": "uint256",
          "name": "",
          "type": "uint256"
        }
      ],
      "stateMutability": "view",
      "type": "function"
    },
    {
      "inputs": [
        {
          "internalType": "address",
          "name": "newOwner",
          "type": "address"
        }
      ],
      "name": "transferOwnership",
      "outputs": [],
      "stateMutability": "nonpayable",
      "type": "function"
    },
    {
      "inputs": [
        {
          "internalType": "uint256",
          "name": "amount",
          "type": "uint256"
        }
      ],
      "name": "withdraw",
      "outputs": [],
      "stateMutability": "nonpayable",
      "type": "function"
    },
    {
      "inputs": [],
      "name": "withdrawStake",
      "outputs": [],
      "stateMutability": "nonpayable",
      "type": "function"
    }
  ],
  "bytecode": "0x6101006040523480156200001257600080fd5b50604051620044d2380380620044d28339818101604052810190620000389190620007cf565b620000586200004c6200045260201b60201c565b6200045a60201b60201c565b60008351116200009f576040517f08c379a00000000000000000000000000000000000000000000000000000000081526004016200009690620008c1565b60405180910390fd5b600073ffffffffffffffffffffffffffffffffffffffff168473ffffffffffffffffffffffffffffffffffffffff160362000111576040517f08c379a0000000000000000000000000000000000000000000000000000000008152600401620001089062000959565b60405180910390fd5b62015180821162000159576040517f08c379a00000000000000000000000000000000000000000000000000000000081526004016200015090620009f1565b60405180910390fd5b8373ffffffffffffffffffffffffffffffffffffffff1660808173ffffffffffffffffffffffffffffffffffffffff16815250506000806000805b8651811015620004245783878281518110620001b557620001b462000a13565b5b6020026020010151600001511162000204576040517f08c379a0000000000000000000000000000000000000000000000000000000008152600401620001fb9062000ab8565b60405180910390fd5b828782815181106200021b576200021a62000a13565b5b602002602001015160400151116200026a576040517f08c379a0000000000000000000000000000000000000000000000000000000008152600401620002619062000ab8565b60405180910390fd5b8187828151811062000281576200028062000a13565b5b60200260200101516020015111620002d0576040517f08c379a0000000000000000000000000000000000000000000000000000000008152600401620002c79062000ab8565b60405180910390fd5b612710878281518110620002e957620002e862000a13565b5b602002602001015160200151111562000339576040517f08c379a0000000000000000000000000000000000000000000000000000000008152600401620003309062000b50565b60405180910390fd5b600187828151811062000351576200035062000a13565b5b602002602001015190806001815401808255809150506001900390600052602060002090600302016000909190919091506000820151816000015560208201518160010155604082015181600201555050868181518110620003b857620003b762000a13565b5b6020026020010151600001519350868181518110620003dc57620003db62000a13565b5b60200260200101516040015192508681815181106200040057620003ff62000a13565b5b602002602001015160200151915080806200041b9062000ba1565b91505062000194565b5085516002819055508460a081815250504260c081815250508360e081815250505050505050505062000bee565b600033905090565b60008060009054906101000a900473ffffffffffffffffffffffffffffffffffffffff169050816000806101000a81548173ffffffffffffffffffffffffffffffffffffffff021916908373ffffffffffffffffffffffffffffffffffffffff1602179055508173ffffffffffffffffffffffffffffffffffffffff168173ffffffffffffffffffffffffffffffffffffffff167f8be0079c531659141344cd1fd0a4f28419497f9722a3daafe3b4186f6b6457e060405160405180910390a35050565b6000604051905090565b600080fd5b600080fd5b600073ffffffffffffffffffffffffffffffffffffffff82169050919050565b60006200055f8262000532565b9050919050565b6000620005738262000552565b9050919050565b620005858162000566565b81146200059157600080fd5b50565b600081519050620005a5816200057a565b92915050565b600080fd5b6000601f19601f8301169050919050565b7f4e487b7100000000000000000000000000000000000000000000000000000000600052604160045260246000fd5b620005fb82620005b0565b810181811067ffffffffffffffff821117156200061d576200061c620005c1565b5b80604052505050565b6000620006326200051e565b9050620006408282620005f0565b919050565b600067ffffffffffffffff821115620006635762000662620005c1565b5b602082029050602081019050919050565b600080fd5b600080fd5b6000819050919050565b62000693816200067e565b81146200069f57600080fd5b50565b600081519050620006b38162000688565b92915050565b600060608284031215620006d257620006d162000679565b5b620006de606062000626565b90506000620006f084828501620006a2565b60008301525060206200070684828501620006a2565b60208301525060406200071c84828501620006a2565b60408301525092915050565b60006200073f620007398462000645565b62000626565b9050808382526020820190506060840283018581111562000765576200076462000674565b5b835b818110156200079257806200077d8882620006b9565b84526020840193505060608101905062000767565b5050509392505050565b600082601f830112620007b457620007b3620005ab565b5b8151620007c684826020860162000728565b91505092915050565b60008060008060808587031215620007ec57620007eb62000528565b5b6000620007fc8782880162000594565b945050602085015167ffffffffffffffff81111562000820576200081f6200052d565b5b6200082e878288016200079c565b93505060406200084187828801620006a2565b92505060606200085487828801620006a2565b91505092959194509250565b600082825260208201905092915050565b7f5374616b653a207469657273206d757374206e6f7420626520656d7074790000600082015250565b6000620008a9601e8362000860565b9150620008b68262000871565b602082019050919050565b60006020820190508181036000830152620008dc816200089a565b9050919050565b7f5374616b653a20746f6b656e206d757374206e6f74206265207a65726f20616460008201527f6472657373000000000000000000000000000000000000000000000000000000602082015250565b60006200094160258362000860565b91506200094e82620008e3565b604082019050919050565b60006020820190508181036000830152620009748162000932565b9050919050565b7f5374616b653a20626964207570206475726174696f6e206d757374206265206760008201527f726561746572207468616e207a65726f00000000000000000000000000000000602082015250565b6000620009d960308362000860565b9150620009e6826200097b565b604082019050919050565b6000602082019050818103600083015262000a0c81620009ca565b9050919050565b7f4e487b7100000000000000000000000000000000000000000000000000000000600052603260045260246000fd5b7f5374616b653a207469657273206d75737420626520696e20617363656e64696e60008201527f67206f7264657200000000000000000000000000000000000000000000000000602082015250565b600062000aa060278362000860565b915062000aad8262000a42565b604082019050919050565b6000602082019050818103600083015262000ad38162000a91565b9050919050565b7f5374616b653a207265776172642072617465206d757374206265206c6573732060008201527f7468616e206f7220657175616c20746f20313030250000000000000000000000602082015250565b600062000b3860358362000860565b915062000b458262000ada565b604082019050919050565b6000602082019050818103600083015262000b6b8162000b29565b9050919050565b7f4e487b7100000000000000000000000000000000000000000000000000000000600052601160045260246000fd5b600062000bae826200067e565b91507fffffffffffffffffffffffffffffffffffffffffffffffffffffffffffffffff820362000be35762000be262000b72565b5b600182019050919050565b60805160a05160c05160e05161384162000c9160003960008181610379015261158901526000818161053e015281816112ff01526117e8015260008181610a4301528181610d2f015261113c0152600081816103ac015281816109fd01528181610ccb0152818161101f0152818161124f015281816112a3015281816115f8015281816116ad01528181611ac701528181611ea40152611f5901526138416000f3fe608060405234801561001057600080fd5b506004361061010b5760003560e01c8063869a6a6b116100a2578063b88a802f11610071578063b88a802f14610287578063bed9d86114610291578063de1705701461029b578063f2fde38b146102b9578063fdb5a03e146102d55761010b565b8063869a6a6b146102395780638da5cb5b146102435780638f7f120714610261578063ad78c1911461027d5761010b565b80633a61738d116100de5780633a61738d146101b1578063715018a6146101e157806379eaaf61146101eb5780637a766460146102095761010b565b8063039af9eb1461011057806316934fc414610142578063242abb0e146101775780632e1a7d4d14610195575b600080fd5b61012a60048036038101906101259190612668565b6102df565b604051610139939291906126a4565b60405180910390f35b61015c60048036038101906101579190612739565b610319565b60405161016e96959493929190612775565b60405180910390f35b61017f610375565b60405161018c91906127d6565b60405180910390f35b6101af60048036038101906101aa9190612668565b61039d565b005b6101cb60048036038101906101c69190612739565b6103f3565b6040516101d891906127d6565b60405180910390f35b6101e96106ec565b005b6101f3610700565b60405161020091906127d6565b60405180910390f35b610223600480360381019061021e9190612739565b610706565b604051610230919061288a565b60405180910390f35b6102416107e7565b005b61024b610bee565b60405161025891906128a5565b60405180910390f35b61027b600480360381019061027691906128c0565b610c17565b005b610285610ea5565b005b61028f6112ec565b005b6102996117d5565b005b6102a3611ba7565b6040516102b09190612a04565b60405180910390f35b6102d360048036038101906102ce9190612739565b611c24565b005b6102dd611ca7565b005b600181815481106102ef57600080fd5b90600052602060002090600302016000915090508060000154908060010154908060020154905083565b60036020528060005260406000206000915090508060000154908060010154908060020154908060030154908060040160009054906101000a900473ffffffffffffffffffffffffffffffffffffffff16908060050154905086565b60007f0000000000000000000000000000000000000000000000000000000000000000905090565b6103a5612085565b6103f033827f000000000000000000000000000000000000000000000000000000000000000073ffffffffffffffffffffffffffffffffffffffff166121039092919063ffffffff16565b50565b600080600360008473ffffffffffffffffffffffffffffffffffffffff1673ffffffffffffffffffffffffffffffffffffffff1681526020019081526020016000206040518060c0016040529081600082015481526020016001820154815260200160028201548152602001600382015481526020016004820160009054906101000a900473ffffffffffffffffffffffffffffffffffffffff1673ffffffffffffffffffffffffffffffffffffffff1673ffffffffffffffffffffffffffffffffffffffff168152602001600582015481525050905060008160200151036104e05760009150506106e7565b6000816060015142116104f357426104f9565b81606001515b905060006105296201518061051b85604001518561218990919063ffffffff16565b61219f90919063ffffffff16565b9050600061058c600761057e620151806105707f0000000000000000000000000000000000000000000000000000000000000000896040015161218990919063ffffffff16565b61219f90919063ffffffff16565b6121b590919063ffffffff16565b905060006105dc60026105ce60076105c060016105b2888a6121cb90919063ffffffff16565b6121cb90919063ffffffff16565b61219f90919063ffffffff16565b6121e190919063ffffffff16565b90506000600261061b600761060d60026105ff888a6121cb90919063ffffffff16565b6121cb90919063ffffffff16565b61219f90919063ffffffff16565b1461062757600061062a565b60015b60ff169050600061065682610648858861218990919063ffffffff16565b61218990919063ffffffff16565b905060006106ae6127106106a060018b600001518154811061067b5761067a612a26565b5b9060005260206000209060030201600101548b602001516121e190919063ffffffff16565b61219f90919063ffffffff16565b90506106c382826121e190919063ffffffff16565b98506106dc8860a001518a61218990919063ffffffff16565b985050505050505050505b919050565b6106f4612085565b6106fe60006121f7565b565b60025481565b61070e6125e1565b600360008373ffffffffffffffffffffffffffffffffffffffff1673ffffffffffffffffffffffffffffffffffffffff1681526020019081526020016000206040518060c0016040529081600082015481526020016001820154815260200160028201548152602001600382015481526020016004820160009054906101000a900473ffffffffffffffffffffffffffffffffffffffff1673ffffffffffffffffffffffffffffffffffffffff1673ffffffffffffffffffffffffffffffffffffffff1681526020016005820154815250509050919050565b6000600360003373ffffffffffffffffffffffffffffffffffffffff1673ffffffffffffffffffffffffffffffffffffffff168152602001908152602001600020600101541161086c576040517f08c379a000000000000000000000000000000000000000000000000000000000815260040161086390612ab2565b60405180910390fd5b600360003373ffffffffffffffffffffffffffffffffffffffff1673ffffffffffffffffffffffffffffffffffffffff168152602001908152602001600020600301544210156108f1576040517f08c379a00000000000000000000000000000000000000000000000000000000081526004016108e890612b1e565b60405180910390fd5b60006108fc336103f3565b905060008111610941576040517f08c379a000000000000000000000000000000000000000000000000000000000815260040161093890612b8a565b60405180910390fd5b600061096a606461095c6005856121e190919063ffffffff16565b61219f90919063ffffffff16565b9050808210156109af576040517f08c379a00000000000000000000000000000000000000000000000000000000081526004016109a690612c1c565b60405180910390fd5b60006109d860646109ca6005856121e190919063ffffffff16565b61219f90919063ffffffff16565b90506109ed818361218990919063ffffffff16565b9150610a416109fa610bee565b827f000000000000000000000000000000000000000000000000000000000000000073ffffffffffffffffffffffffffffffffffffffff166121039092919063ffffffff16565b7f000000000000000000000000000000000000000000000000000000000000000042610a6d9190612c6b565b600360003373ffffffffffffffffffffffffffffffffffffffff1673ffffffffffffffffffffffffffffffffffffffff16815260200190815260200160002060030181905550610b0882600360003373ffffffffffffffffffffffffffffffffffffffff1673ffffffffffffffffffffffffffffffffffffffff168152602001908152602001600020600101546121cb90919063ffffffff16565b600360003373ffffffffffffffffffffffffffffffffffffffff1673ffffffffffffffffffffffffffffffffffffffff16815260200190815260200160002060010181905550610ba382600360003373ffffffffffffffffffffffffffffffffffffffff1673ffffffffffffffffffffffffffffffffffffffff168152602001908152602001600020600501546121cb90919063ffffffff16565b600360003373ffffffffffffffffffffffffffffffffffffffff1673ffffffffffffffffffffffffffffffffffffffff16815260200190815260200160002060050181905550505050565b60008060009054906101000a900473ffffffffffffffffffffffffffffffffffffffff16905090565b6002548310610c5b576040517f08c379a0000000000000000000000000000000000000000000000000000000008152600401610c5290612ceb565b60405180910390fd5b60018381548110610c6f57610c6e612a26565b5b906000526020600020906003020160000154821015610cc3576040517f08c379a0000000000000000000000000000000000000000000000000000000008152600401610cba90612d57565b60405180910390fd5b610d103330847f000000000000000000000000000000000000000000000000000000000000000073ffffffffffffffffffffffffffffffffffffffff166122bb909392919063ffffffff16565b6040518060c001604052808481526020018381526020014281526020017f000000000000000000000000000000000000000000000000000000000000000042610d599190612c6b565b81526020018273ffffffffffffffffffffffffffffffffffffffff1681526020016000815250600360003373ffffffffffffffffffffffffffffffffffffffff1673ffffffffffffffffffffffffffffffffffffffff1681526020019081526020016000206000820151816000015560208201518160010155604082015181600201556060820151816003015560808201518160040160006101000a81548173ffffffffffffffffffffffffffffffffffffffff021916908373ffffffffffffffffffffffffffffffffffffffff16021790555060a082015181600501559050508073ffffffffffffffffffffffffffffffffffffffff16833373ffffffffffffffffffffffffffffffffffffffff167f400f0fe3857f81159b40670bacb6306a109ec36bcb070f8924c283ceb96ca68785604051610e9891906127d6565b60405180910390a4505050565b6000600360003373ffffffffffffffffffffffffffffffffffffffff1673ffffffffffffffffffffffffffffffffffffffff1681526020019081526020016000206001015411610f2a576040517f08c379a0000000000000000000000000000000000000000000000000000000008152600401610f2190612ab2565b60405180910390fd5b600360003373ffffffffffffffffffffffffffffffffffffffff1673ffffffffffffffffffffffffffffffffffffffff16815260200190815260200160002060030154421015610faf576040517f08c379a0000000000000000000000000000000000000000000000000000000008152600401610fa690612b1e565b60405180910390fd5b600061101a606461100c6005600360003373ffffffffffffffffffffffffffffffffffffffff1673ffffffffffffffffffffffffffffffffffffffff168152602001908152602001600020600101546121e190919063ffffffff16565b61219f90919063ffffffff16565b9050807f000000000000000000000000000000000000000000000000000000000000000073ffffffffffffffffffffffffffffffffffffffff1663dd62ed3e33306040518363ffffffff1660e01b8152600401611078929190612d77565b602060405180830381865afa158015611095573d6000803e3d6000fd5b505050506040513d601f19601f820116820180604052508101906110b99190612db5565b10156110fa576040517f08c379a00000000000000000000000000000000000000000000000000000000081526004016110f190612e2e565b60405180910390fd5b600061112360646111156005856121e190919063ffffffff16565b61219f90919063ffffffff16565b9050611138818361218990919063ffffffff16565b91507f0000000000000000000000000000000000000000000000000000000000000000426111669190612c6b565b600360003373ffffffffffffffffffffffffffffffffffffffff1673ffffffffffffffffffffffffffffffffffffffff1681526020019081526020016000206003018190555061120182600360003373ffffffffffffffffffffffffffffffffffffffff1673ffffffffffffffffffffffffffffffffffffffff168152602001908152602001600020600101546121cb90919063ffffffff16565b600360003373ffffffffffffffffffffffffffffffffffffffff1673ffffffffffffffffffffffffffffffffffffffff168152602001908152602001600020600101819055506112943330847f000000000000000000000000000000000000000000000000000000000000000073ffffffffffffffffffffffffffffffffffffffff166122bb909392919063ffffffff16565b6112e8336112a0610bee565b837f000000000000000000000000000000000000000000000000000000000000000073ffffffffffffffffffffffffffffffffffffffff166122bb909392919063ffffffff16565b5050565b6000611349600761133b6201518061132d7f00000000000000000000000000000000000000000000000000000000000000004261218990919063ffffffff16565b61219f90919063ffffffff16565b6121b590919063ffffffff16565b9050600381148061135a5750600481145b611399576040517f08c379a000000000000000000000000000000000000000000000000000000000815260040161139090612ec0565b60405180910390fd5b60006113a4336103f3565b9050600081116113e9576040517f08c379a00000000000000000000000000000000000000000000000000000000081526004016113e090612f2c565b60405180910390fd5b600360003373ffffffffffffffffffffffffffffffffffffffff1673ffffffffffffffffffffffffffffffffffffffff16815260200190815260200160002060030154421061146d576040517f08c379a000000000000000000000000000000000000000000000000000000000815260040161146490612fbe565b60405180910390fd5b60006114966064611488600e856121e190919063ffffffff16565b61219f90919063ffffffff16565b905060008073ffffffffffffffffffffffffffffffffffffffff16600360003373ffffffffffffffffffffffffffffffffffffffff1673ffffffffffffffffffffffffffffffffffffffff16815260200190815260200160002060040160009054906101000a900473ffffffffffffffffffffffffffffffffffffffff1673ffffffffffffffffffffffffffffffffffffffff160361153657600061155e565b61155d606461154f6014866121e190919063ffffffff16565b61219f90919063ffffffff16565b5b905061158581611577848661218990919063ffffffff16565b61218990919063ffffffff16565b92507f00000000000000000000000000000000000000000000000000000000000000008310156115ea576040517f08c379a00000000000000000000000000000000000000000000000000000000081526004016115e19061302a565b60405180910390fd5b61163c6115f5610bee565b837f000000000000000000000000000000000000000000000000000000000000000073ffffffffffffffffffffffffffffffffffffffff166121039092919063ffffffff16565b600081146116f2576116f1600360003373ffffffffffffffffffffffffffffffffffffffff1673ffffffffffffffffffffffffffffffffffffffff16815260200190815260200160002060040160009054906101000a900473ffffffffffffffffffffffffffffffffffffffff16827f000000000000000000000000000000000000000000000000000000000000000073ffffffffffffffffffffffffffffffffffffffff166121039092919063ffffffff16565b5b42600360003373ffffffffffffffffffffffffffffffffffffffff1673ffffffffffffffffffffffffffffffffffffffff168152602001908152602001600020600201819055506000600360003373ffffffffffffffffffffffffffffffffffffffff1673ffffffffffffffffffffffffffffffffffffffff168152602001908152602001600020600501819055503373ffffffffffffffffffffffffffffffffffffffff167f106f923f993c2149d49b4255ff723acafa1f2d94393f561d3eda32ae348f7241846040516117c791906127d6565b60405180910390a250505050565b60006118326007611824620151806118167f00000000000000000000000000000000000000000000000000000000000000004261218990919063ffffffff16565b61219f90919063ffffffff16565b6121b590919063ffffffff16565b905060038114806118435750600481145b611882576040517f08c379a000000000000000000000000000000000000000000000000000000000815260040161187990612ec0565b60405180910390fd5b6000600360003373ffffffffffffffffffffffffffffffffffffffff1673ffffffffffffffffffffffffffffffffffffffff1681526020019081526020016000206040518060c0016040529081600082015481526020016001820154815260200160028201548152602001600382015481526020016004820160009054906101000a900473ffffffffffffffffffffffffffffffffffffffff1673ffffffffffffffffffffffffffffffffffffffff1673ffffffffffffffffffffffffffffffffffffffff1681526020016005820154815250509050600081602001511161199f576040517f08c379a000000000000000000000000000000000000000000000000000000000815260040161199690613096565b60405180910390fd5b806060015142106119e5576040517f08c379a00000000000000000000000000000000000000000000000000000000081526004016119dc90613128565b60405180910390fd5b611a256001826000015181548110611a00576119ff612a26565b5b90600052602060002090600302016002015482604001516121cb90919063ffffffff16565b421015611a67576040517f08c379a0000000000000000000000000000000000000000000000000000000008152600401611a5e906131ba565b60405180910390fd5b611a6f6112ec565b6000611a9c6064611a8e600e85602001516121e190919063ffffffff16565b61219f90919063ffffffff16565b90506000611ab782846020015161218990919063ffffffff16565b9050611b0b611ac4610bee565b837f000000000000000000000000000000000000000000000000000000000000000073ffffffffffffffffffffffffffffffffffffffff166121039092919063ffffffff16565b6000600360003373ffffffffffffffffffffffffffffffffffffffff1673ffffffffffffffffffffffffffffffffffffffff168152602001908152602001600020600101819055503373ffffffffffffffffffffffffffffffffffffffff167f8108595eb6bad3acefa9da467d90cc2217686d5c5ac85460f8b7849c840645fc82604051611b9991906127d6565b60405180910390a250505050565b60606001805480602002602001604051908101604052809291908181526020016000905b82821015611c1b5783829060005260206000209060030201604051806060016040529081600082015481526020016001820154815260200160028201548152505081526020019060010190611bcb565b50505050905090565b611c2c612085565b600073ffffffffffffffffffffffffffffffffffffffff168173ffffffffffffffffffffffffffffffffffffffff1603611c9b576040517f08c379a0000000000000000000000000000000000000000000000000000000008152600401611c929061324c565b60405180910390fd5b611ca4816121f7565b50565b6000600360003373ffffffffffffffffffffffffffffffffffffffff1673ffffffffffffffffffffffffffffffffffffffff1681526020019081526020016000206001015411611d2c576040517f08c379a0000000000000000000000000000000000000000000000000000000008152600401611d23906132b8565b60405180910390fd5b6000611d37336103f3565b905060008111611d7c576040517f08c379a0000000000000000000000000000000000000000000000000000000008152600401611d7390613324565b60405180910390fd5b6000611da56064611d97600e856121e190919063ffffffff16565b61219f90919063ffffffff16565b905060008073ffffffffffffffffffffffffffffffffffffffff16600360003373ffffffffffffffffffffffffffffffffffffffff1673ffffffffffffffffffffffffffffffffffffffff16815260200190815260200160002060040160009054906101000a900473ffffffffffffffffffffffffffffffffffffffff1673ffffffffffffffffffffffffffffffffffffffff1603611e45576000611e6d565b611e6c6064611e5e6008866121e190919063ffffffff16565b61219f90919063ffffffff16565b5b9050611e9481611e86848661218990919063ffffffff16565b61218990919063ffffffff16565b9250611ee8611ea1610bee565b837f000000000000000000000000000000000000000000000000000000000000000073ffffffffffffffffffffffffffffffffffffffff166121039092919063ffffffff16565b60008114611f9e57611f9d600360003373ffffffffffffffffffffffffffffffffffffffff1673ffffffffffffffffffffffffffffffffffffffff16815260200190815260200160002060040160009054906101000a900473ffffffffffffffffffffffffffffffffffffffff16827f000000000000000000000000000000000000000000000000000000000000000073ffffffffffffffffffffffffffffffffffffffff166121039092919063ffffffff16565b5b611ff383600360003373ffffffffffffffffffffffffffffffffffffffff1673ffffffffffffffffffffffffffffffffffffffff168152602001908152602001600020600101546121cb90919063ffffffff16565b600360003373ffffffffffffffffffffffffffffffffffffffff1673ffffffffffffffffffffffffffffffffffffffff1681526020019081526020016000206001018190555042600360003373ffffffffffffffffffffffffffffffffffffffff1673ffffffffffffffffffffffffffffffffffffffff16815260200190815260200160002060020181905550505050565b61208d612344565b73ffffffffffffffffffffffffffffffffffffffff166120ab610bee565b73ffffffffffffffffffffffffffffffffffffffff1614612101576040517f08c379a00000000000000000000000000000000000000000000000000000000081526004016120f890613390565b60405180910390fd5b565b6121848363a9059cbb60e01b84846040516024016121229291906133b0565b604051602081830303815290604052907bffffffffffffffffffffffffffffffffffffffffffffffffffffffff19166020820180517bffffffffffffffffffffffffffffffffffffffffffffffffffffffff838183161783525050505061234c565b505050565b6000818361219791906133d9565b905092915050565b600081836121ad919061343c565b905092915050565b600081836121c3919061346d565b905092915050565b600081836121d99190612c6b565b905092915050565b600081836121ef919061349e565b905092915050565b60008060009054906101000a900473ffffffffffffffffffffffffffffffffffffffff169050816000806101000a81548173ffffffffffffffffffffffffffffffffffffffff021916908373ffffffffffffffffffffffffffffffffffffffff1602179055508173ffffffffffffffffffffffffffffffffffffffff168173ffffffffffffffffffffffffffffffffffffffff167f8be0079c531659141344cd1fd0a4f28419497f9722a3daafe3b4186f6b6457e060405160405180910390a35050565b61233e846323b872dd60e01b8585856040516024016122dc939291906134e0565b604051602081830303815290604052907bffffffffffffffffffffffffffffffffffffffffffffffffffffffff19166020820180517bffffffffffffffffffffffffffffffffffffffffffffffffffffffff838183161783525050505061234c565b50505050565b600033905090565b60006123ae826040518060400160405280602081526020017f5361666545524332303a206c6f772d6c6576656c2063616c6c206661696c65648152508573ffffffffffffffffffffffffffffffffffffffff166124149092919063ffffffff16565b90506000815114806123d05750808060200190518101906123cf919061354f565b5b61240f576040517f08c379a0000000000000000000000000000000000000000000000000000000008152600401612406906135ee565b60405180910390fd5b505050565b6060612423848460008561242c565b90509392505050565b606082471015612471576040517f08c379a000000000000000000000000000000000000000000000000000000000815260040161246890613680565b60405180910390fd5b6000808673ffffffffffffffffffffffffffffffffffffffff16858760405161249a9190613711565b60006040518083038185875af1925050503d80600081146124d7576040519150601f19603f3d011682016040523d82523d6000602084013e6124dc565b606091505b50915091506124ed878383876124f9565b92505050949350505050565b6060831561255b576000835103612553576125138561256e565b612552576040517f08c379a000000000000000000000000000000000000000000000000000000000815260040161254990613774565b60405180910390fd5b5b829050612566565b6125658383612591565b5b949350505050565b6000808273ffffffffffffffffffffffffffffffffffffffff163b119050919050565b6000825111156125a45781518083602001fd5b806040517f08c379a00000000000000000000000000000000000000000000000000000000081526004016125d891906137e9565b60405180910390fd5b6040518060c0016040528060008152602001600081526020016000815260200160008152602001600073ffffffffffffffffffffffffffffffffffffffff168152602001600081525090565b600080fd5b6000819050919050565b61264581612632565b811461265057600080fd5b50565b6000813590506126628161263c565b92915050565b60006020828403121561267e5761267d61262d565b5b600061268c84828501612653565b91505092915050565b61269e81612632565b82525050565b60006060820190506126b96000830186612695565b6126c66020830185612695565b6126d36040830184612695565b949350505050565b600073ffffffffffffffffffffffffffffffffffffffff82169050919050565b6000612706826126db565b9050919050565b612716816126fb565b811461272157600080fd5b50565b6000813590506127338161270d565b92915050565b60006020828403121561274f5761274e61262d565b5b600061275d84828501612724565b91505092915050565b61276f816126fb565b82525050565b600060c08201905061278a6000830189612695565b6127976020830188612695565b6127a46040830187612695565b6127b16060830186612695565b6127be6080830185612766565b6127cb60a0830184612695565b979650505050505050565b60006020820190506127eb6000830184612695565b92915050565b6127fa81612632565b82525050565b612809816126fb565b82525050565b60c08201600082015161282560008501826127f1565b50602082015161283860208501826127f1565b50604082015161284b60408501826127f1565b50606082015161285e60608501826127f1565b5060808201516128716080850182612800565b5060a082015161288460a08501826127f1565b50505050565b600060c08201905061289f600083018461280f565b92915050565b60006020820190506128ba6000830184612766565b92915050565b6000806000606084860312156128d9576128d861262d565b5b60006128e786828701612653565b93505060206128f886828701612653565b925050604061290986828701612724565b9150509250925092565b600081519050919050565b600082825260208201905092915050565b6000819050602082019050919050565b60608201600082015161295560008501826127f1565b50602082015161296860208501826127f1565b50604082015161297b60408501826127f1565b50505050565b600061298d838361293f565b60608301905092915050565b6000602082019050919050565b60006129b182612913565b6129bb818561291e565b93506129c68361292f565b8060005b838110156129f75781516129de8882612981565b97506129e983612999565b9250506001810190506129ca565b5085935050505092915050565b60006020820190508181036000830152612a1e81846129a6565b905092915050565b7f4e487b7100000000000000000000000000000000000000000000000000000000600052603260045260246000fd5b600082825260208201905092915050565b7f5374616b653a206e6f207374616b6520746f2062696420757000000000000000600082015250565b6000612a9c601983612a55565b9150612aa782612a66565b602082019050919050565b60006020820190508181036000830152612acb81612a8f565b9050919050565b7f5374616b653a20626964207570206e6f7420617661696c61626c652079657400600082015250565b6000612b08601f83612a55565b9150612b1382612ad2565b602082019050919050565b60006020820190508181036000830152612b3781612afb565b9050919050565b7f5374616b653a206e6f2072657761726420746f20626964207570000000000000600082015250565b6000612b74601a83612a55565b9150612b7f82612b3e565b602082019050919050565b60006020820190508181036000830152612ba381612b67565b9050919050565b7f5374616b653a206e6f7420656e6f7567682072657761726420746f206269642060008201527f7570000000000000000000000000000000000000000000000000000000000000602082015250565b6000612c06602283612a55565b9150612c1182612baa565b604082019050919050565b60006020820190508181036000830152612c3581612bf9565b9050919050565b7f4e487b7100000000000000000000000000000000000000000000000000000000600052601160045260246000fd5b6000612c7682612632565b9150612c8183612632565b9250828201905080821115612c9957612c98612c3c565b5b92915050565b7f5374616b653a20696e76616c6964207469657200000000000000000000000000600082015250565b6000612cd5601383612a55565b9150612ce082612c9f565b602082019050919050565b60006020820190508181036000830152612d0481612cc8565b9050919050565b7f5374616b653a20616d6f756e7420746f6f206c6f770000000000000000000000600082015250565b6000612d41601583612a55565b9150612d4c82612d0b565b602082019050919050565b60006020820190508181036000830152612d7081612d34565b9050919050565b6000604082019050612d8c6000830185612766565b612d996020830184612766565b9392505050565b600081519050612daf8161263c565b92915050565b600060208284031215612dcb57612dca61262d565b5b6000612dd984828501612da0565b91505092915050565b7f5374616b653a20696e73756666696369656e7420616c6c6f77616e6365000000600082015250565b6000612e18601d83612a55565b9150612e2382612de2565b602082019050919050565b60006020820190508181036000830152612e4781612e0b565b9050919050565b7f5374616b653a206f6e6c7920696e207468757273646179206f7220667269646160008201527f7900000000000000000000000000000000000000000000000000000000000000602082015250565b6000612eaa602183612a55565b9150612eb582612e4e565b604082019050919050565b60006020820190508181036000830152612ed981612e9d565b9050919050565b7f5374616b653a206e6f2072657761726420746f20636c61696d00000000000000600082015250565b6000612f16601983612a55565b9150612f2182612ee0565b602082019050919050565b60006020820190508181036000830152612f4581612f09565b9050919050565b7f5374616b653a2053686f756c6420626964207570206265666f726520636c616960008201527f6d20726577617264000000000000000000000000000000000000000000000000602082015250565b6000612fa8602883612a55565b9150612fb382612f4c565b604082019050919050565b60006020820190508181036000830152612fd781612f9b565b9050919050565b7f5374616b653a2072657761726420746f6f206c6f7720746f20636c61696d0000600082015250565b6000613014601e83612a55565b915061301f82612fde565b602082019050919050565b6000602082019050818103600083015261304381613007565b9050919050565b7f5374616b653a206e6f207374616b6520746f2077697468647261770000000000600082015250565b6000613080601b83612a55565b915061308b8261304a565b602082019050919050565b600060208201905081810360008301526130af81613073565b9050919050565b7f5374616b653a2053686f756c6420626964207570206265666f7265207769746860008201527f6472617700000000000000000000000000000000000000000000000000000000602082015250565b6000613112602483612a55565b915061311d826130b6565b604082019050919050565b6000602082019050818103600083015261314181613105565b9050919050565b7f5374616b653a2053686f756c64207761697420756e74696c207374616b65206460008201527f75726174696f6e20656e64730000000000000000000000000000000000000000602082015250565b60006131a4602c83612a55565b91506131af82613148565b604082019050919050565b600060208201905081810360008301526131d381613197565b9050919050565b7f4f776e61626c653a206e6577206f776e657220697320746865207a65726f206160008201527f6464726573730000000000000000000000000000000000000000000000000000602082015250565b6000613236602683612a55565b9150613241826131da565b604082019050919050565b6000602082019050818103600083015261326581613229565b9050919050565b7f5374616b653a206e6f207374616b6520746f207265696e766573740000000000600082015250565b60006132a2601b83612a55565b91506132ad8261326c565b602082019050919050565b600060208201905081810360008301526132d181613295565b9050919050565b7f5374616b653a206e6f2072657761726420746f207265696e7665737400000000600082015250565b600061330e601c83612a55565b9150613319826132d8565b602082019050919050565b6000602082019050818103600083015261333d81613301565b9050919050565b7f4f776e61626c653a2063616c6c6572206973206e6f7420746865206f776e6572600082015250565b600061337a602083612a55565b915061338582613344565b602082019050919050565b600060208201905081810360008301526133a98161336d565b9050919050565b60006040820190506133c56000830185612766565b6133d26020830184612695565b9392505050565b60006133e482612632565b91506133ef83612632565b925082820390508181111561340757613406612c3c565b5b92915050565b7f4e487b7100000000000000000000000000000000000000000000000000000000600052601260045260246000fd5b600061344782612632565b915061345283612632565b9250826134625761346161340d565b5b828204905092915050565b600061347882612632565b915061348383612632565b9250826134935761349261340d565b5b828206905092915050565b60006134a982612632565b91506134b483612632565b92508282026134c281612632565b915082820484148315176134d9576134d8612c3c565b5b5092915050565b60006060820190506134f56000830186612766565b6135026020830185612766565b61350f6040830184612695565b949350505050565b60008115159050919050565b61352c81613517565b811461353757600080fd5b50565b60008151905061354981613523565b92915050565b6000602082840312156135655761356461262d565b5b60006135738482850161353a565b91505092915050565b7f5361666545524332303a204552433230206f7065726174696f6e20646964206e60008201527f6f74207375636365656400000000000000000000000000000000000000000000602082015250565b60006135d8602a83612a55565b91506135e38261357c565b604082019050919050565b60006020820190508181036000830152613607816135cb565b9050919050565b7f416464726573733a20696e73756666696369656e742062616c616e636520666f60008201527f722063616c6c0000000000000000000000000000000000000000000000000000602082015250565b600061366a602683612a55565b91506136758261360e565b604082019050919050565b600060208201905081810360008301526136998161365d565b9050919050565b600081519050919050565b600081905092915050565b60005b838110156136d45780820151818401526020810190506136b9565b60008484015250505050565b60006136eb826136a0565b6136f581856136ab565b93506137058185602086016136b6565b80840191505092915050565b600061371d82846136e0565b915081905092915050565b7f416464726573733a2063616c6c20746f206e6f6e2d636f6e7472616374000000600082015250565b600061375e601d83612a55565b915061376982613728565b602082019050919050565b6000602082019050818103600083015261378d81613751565b9050919050565b600081519050919050565b6000601f19601f8301169050919050565b60006137bb82613794565b6137c58185612a55565b93506137d58185602086016136b6565b6137de8161379f565b840191505092915050565b6000602082019050818103600083015261380381846137b0565b90509291505056fea26469706673582212209d0f7ce04de58ab18513ed6bf0241a64d1915660ac79294ccadb44651b4e389064736f6c63430008130033",
  "linkReferences": {},
  "deployedLinkReferences": {}
}